:100000000C9434000C9451000C9451000C94510049
:100010000C9451000C9451000C9451000C9451001C
:100020000C9451000C9451000C940A010C94510052
:100030000C9451000C9433010C9451000C94510019
:100040000C9451000C9451000C9451000C945100EC
:100050000C9451000C9451000C9451000C945100DC
:100060000C9451000C94510011241FBECFEFD8E026
:10007000DEBFCDBF11E0A0E0B1E0E4E4F5E002C0F6
:1000800005900D92A235B107D9F721E0A2E5B1E0C4
:1000900001C01D92A935B207E1F70E94B3000C948C
:1000A000A0020C940000AF92BF92CF92DF92EF9229
:1000B000FF920F931F93CF93DF93CDB7DEB72797B0
:1000C0000FB6F894DEBF0FBECDBF5A01C982DA82E7
:1000D000EB82FC820D831E832F83CA80DB80EC8041
:1000E000FD800E9415028CE20E940202C5010E945E
:1000F00009028CE20E9402028981882319F083E0C0
:1001000091E002C080E091E00E9409028CE20E942E
:100110000202C701B6010E9415028CE20E9402028F
:10012000C701B60196958795779567950E94150248
:100130008CE20E9402026E817F8180E090E00E944A
:10014000150227960FB6F894DEBF0FBECDBFDF9124
:10015000CF911F910F91FF90EF90DF90CF90BF90C4
:10016000AF900C947802CF93DF93CDB7DEB72E9784
:100170000FB6F894DEBF0FBECDBF0E94F6010E94FD
:100180004A0178940E9478028BE091E00E94090273
:100190000E9478028FE291E00E9409020E94780298
:1001A000812C912C540180E00E946C0128873987B2
:1001B0004A875B876C877D878E8769017A018B010F
:1001C000282F4AE451E0C501B4010E94530081E0A8
:1001D0000E946C0129833A834B835C836D837E8309
:1001E0008F8369017A018B01282F4FE451E0C5010B
:1001F000B4010E9453002FEF821A920AA20AB20A97
:100200008FEF93ED20E3815090402040E1F700C054
:100210000000C9CF1F920F920FB60F9211242F9397
:100220003F938F939F932091860030918700809118
:10023000570190915801B09B02C037FF019630934F
:10024000560120935501909354018093530181E00E
:10025000809352019F918F913F912F910F900FBEEC
:100260000F901F9018951F920F920FB60F921124A6
:100270008F939F938091570190915801019690938D
:100280005801809357019F918F910F900FBE0F904F
:100290001F90189584B1876084B985B1887F85B92E
:1002A00057985F98EFE7F0E0808182608083EBE70A
:1002B000F0E080818F7B808384E480BF8FE39CE9C2
:1002C0000197F1F700C000001092800010928100A9
:1002D00081E280936F000895CF93DF93CDB7DEB7AF
:1002E00027970FB6F894DEBF0FBECDBF95B1987FAC
:1002F00095B9823031F0833031F0813029F4289A79
:1003000003C0299A01C02A9A8FE19EE40197F1F770
:1003100000C000005F9A579A8FE891E00197F1F7CB
:1003200000C00000F89410925801109257011092EA
:100330005201109285001092840081E286BB82E413
:100340008093810057985F98789480915201882318
:1003500021F11092810085B1887F85B93FB7F8946B
:1003600080915201882319F1E0915301F0915401D9
:100370008091530190915401409155015091560143
:10038000A0E0B0E0DC019927882760E070E0842BD2
:10039000952BA62BB72B20E012C02FB7F894809195
:1003A0005701909158012FBFCD9778F2D2CFE091AD
:1003B0005701F091580180E090E0DC0121E03FBF5F
:1003C0008A839B83AC83BD83FF83EE83382F4B816D
:1003D0005C816D817E2F8F8190E027960FB6F89417
:1003E000DEBF0FBECDBFDF91CF9108951092C50043
:1003F00089E18093C40088E08093C10086E0809307
:10040000C20008959091C00095FFFCCF8093C60074
:100410000895CF93DF93EC018991882319F00E940E
:100420000202FACFDF91CF9108958F929F92AF92FF
:10043000BF92EF92FF921F93CF93DF93CDB7DEB7BA
:100440002B970FB6F894DEBF0FBECDBF61157105B7
:100450008105910591F480E32B960FB6F894DEBFE9
:100460000FBECDBFDF91CF911F91FF90EF90BF9056
:10047000AF909F908F900C94020220E04AE0842E6F
:10048000912CA12CB12C11E0120FEE24E394F12C4D
:10049000EC0EFD1EE20EF11CA50194010E947E02ED
:1004A000605DF7016083B901CA01212F61157105F3
:1004B0008105910541F7112359F01150E1E0F0E079
:1004C000EC0FFD1FE10FF11D80810E940202F3CFAE
:1004D0002B960FB6F894DEBF0FBECDBFDF91CF9144
:1004E0001F91FF90EF90BF90AF909F908F900895D5
:1004F0008DE00E9402028AE00C940202A1E21A2E10
:10050000AA1BBB1BFD010DC0AA1FBB1FEE1FFF1FB7
:10051000A217B307E407F50720F0A21BB30BE40B07
:10052000F50B661F771F881F991F1A9469F760954E
:100530007095809590959B01AC01BD01CF01089508
:04054000F894FFCF5D
:100544004F4B0054494D454F5554002320504544CA
:10055400442050686173652031206C6F67202F2020
:1005640031207469636B203D203530306E73007325
:1005740065712C63682C7374617475732C7469636E
:100584006B732C75732C6F7666004441524B00528A
:02059400000065
:00000001FF
