:100000000C9434000C9451000C9451000C94510049
:100010000C9451000C9451000C9451000C9451001C
:100020000C9451000C9451000C94D7000C94510086
:100030000C9451000C9400010C9451000C9451004C
:100040000C9451000C9451000C9451000C945100EC
:100050000C9451000C9451000C9451000C945100DC
:100060000C9451000C94510011241FBECFEFD8E026
:10007000DEBFCDBF11E0A0E0B1E0EEEDF4E002C0E4
:1000800005900D92A237B107D9F721E0A2E7B1E0C0
:1000900001C01D92A937B207E1F70E9453000C94EA
:1000A0006D020C940000CF93DF93CDB7DEB7289795
:1000B0000FB6F894DEBF0FBECDBF0E94C3010E94F1
:1000C000170178940E9445028BE091E00E94D601CE
:1000D0000E94450282E491E00E94D6010E944502FE
:1000E000412C512C32013EE6832E31E0932E06E660
:1000F00011E0F40181914F010E9439012887298381
:100100003A834B835C836D837E838F83F801A19058
:10011000B1908F01CA80DB80EC80FD802E803F8013
:10012000C301B2010E94E2018CE20E94CF01C5012D
:100130000E94D6018CE20E94CF01F885FF2319F0BE
:1001400083E091E002C080E091E00E94D6018CE261
:100150000E94CF01C701B6010E94E2018CE20E9419
:10016000CF01C701B60196958795779567950E944F
:10017000E2018CE20E94CF01B10180E090E00E9498
:10018000E2010E94450221E00E36120709F0B1CFCC
:100190008FEF481A580A680A780A9FEFE3EDF0E3F8
:1001A0009150E040F040E1F700C000009CCF1F926A
:1001B0000F920FB60F9211242F933F938F939F931B
:1001C000209186003091870080917701909178018D
:1001D000B09B02C037FF01963093760120937501E2
:1001E000909374018093730181E0809372019F91D9
:1001F0008F913F912F910F900FBE0F901F901895E8
:100200001F920F920FB60F9211248F939F9380919C
:10021000770190917801019690937801809377010E
:100220009F918F910F900FBE0F901F90189584B1E2
:10023000876084B985B1887F85B957985F98EFE763
:10024000F0E0808182608083EBE7F0E080818F7B4B
:10025000808384E480BF8FE39CE90197F1F700C0BD
:100260000000109280001092810081E280936F0064
:100270000895CF93DF93CDB7DEB727970FB6F894E5
:10028000DEBF0FBECDBF95B1987F95B9823031F0FA
:10029000833031F0813029F4289A03C0299A01C0B3
:1002A0002A9A8FE19EE40197F1F700C000005F9A5F
:1002B000579A8FE891E00197F1F700C00000F89499
:1002C00010927801109277011092720110928500BD
:1002D0001092840081E286BB82E48093810057986B
:1002E0005F98789480917201882321F110928100A7
:1002F00085B1887F85B93FB7F894809172018823D2
:1003000019F1E0917301F091740180917301909162
:1003100074014091750150917601A0E0B0E0DC01DC
:100320009927882760E070E0842B952BA62BB72BAC
:1003300020E012C02FB7F894809177019091780156
:100340002FBFCD9778F2D2CFE0917701F09178016D
:1003500080E090E0DC0121E03FBF8A839B83AC8397
:10036000BD83FF83EE83382F4B815C816D817E2FAF
:100370008F8190E027960FB6F894DEBF0FBECDBFF9
:10038000DF91CF9108951092C50089E18093C40058
:1003900088E08093C10086E08093C2000895909128
:1003A000C00095FFFCCF8093C6000895CF93DF93E4
:1003B000EC018991882319F00E94CF01FACFDF91D7
:1003C000CF9108958F929F92AF92BF92EF92FF923A
:1003D0001F93CF93DF93CDB7DEB72B970FB6F8946B
:1003E000DEBF0FBECDBF611571058105910591F48A
:1003F00080E32B960FB6F894DEBF0FBECDBFDF9122
:10040000CF911F91FF90EF90BF90AF909F908F90F2
:100410000C94CF0120E04AE0842E912CA12CB12C29
:1004200011E0120FEE24E394F12CEC0EFD1EE20E0F
:10043000F11CA50194010E944B02605DF7016083ED
:10044000B901CA01212F611571058105910541F797
:10045000112359F01150E1E0F0E0EC0FFD1FE10F26
:10046000F11D80810E94CF01F3CF2B960FB6F89437
:10047000DEBF0FBECDBFDF91CF911F91FF90EF90F8
:10048000BF90AF909F908F9008958DE00E94CF0114
:100490008AE00C94CF01A1E21A2EAA1BBB1BFD011E
:1004A0000DC0AA1FBB1FEE1FFF1FA217B307E40753
:1004B000F50720F0A21BB30BE40BF50B661F771FAB
:1004C000881F991F1A9469F760957095809590958B
:0E04D0009B01AC01BD01CF010895F894FFCF50
:1004DE004F4B0054494D454F555400232050454431
:1004EE00442050686173652032206C6F67202F2086
:1004FE0031207469636B203D203530306E73202FB0
:10050E00207363616E3A204441524B2C522C472C7F
:10051E0042007365712C63682C7374617475732C4F
:10052E007469636B732C75732C6F7666004441523D
:10053E004B00520047005D01620164014001000161
:02054E000203A6
:00000001FF
